:100000000EC01895189518951895FDC21895189555
:1000100018951895189518951895189518958FE5B1
:100020008DBFC0E4E0E44E2E82E08EBFD2E0F2E06D
:100030005F2EA89584B7082E877F84BF88E1992713
:1000400081BD91BDEEEFF1E0A0E6B0E088278D9391
:100050003197E9F76624BC9AB89AC09AB998C19AC0
:10006000BA98C29A83E083BF80E08ABD74EB72BF06
:10007000789479B77D7F79BF8AE790E0A6E6B0E013
:100080008D939C938EE691E0A4E8B0E08D939C93D1
:1000900089E690E0A8E6B0E08D939C938BE391E035
:1000A000A6E8B0E08D939C938CE590E0AAE6B0E0E2
:1000B0008D939C9384E191E0A8E8B0E08D939C93AC
:1000C00081E590E0ACE6B0E08D939C9383EF90E007
:1000D000AAE8B0E08D939C9389E490E0AEE6B0E0AE
:1000E0008D939C938BED90E0ACE8B0E08D939C9366
:1000F00083E490E0A0E7B0E08D939C9389EC90E0DE
:10010000AEE8B0E08D939C938DE390E0A2E7B0E081
:100110008D939C9387EB90E0A0E9B0E08D939C9346
:1001200088E390E0A4E7B0E08D939C9388EA90E0A8
:10013000A2E9B0E08D939C9384E390E0A6E7B0E061
:100140008D939C938CE990E0A4E9B0E08D939C930F
:1001500081E390E0A8E7B0E08D939C9383E990E081
:10016000A6E9B0E08D939C938EE290E0AAE7B0E020
:100170008D939C938AE890E0A8E9B0E08D939C93DE
:100180008BE290E0ACE7B0E08D939C9381E890E047
:10019000AAE9B0E08D939C9389E290E0AEE7B0E0ED
:1001A0008D939C938BE790E0ACE9B0E08D939C93AA
:1001B00087E290E0A0E8B0E08D939C9385E790E023
:1001C000AEE9B0E08D939C9385E290E0A2E8B0E0C8
:1001D0008D939C938FE690E0A0EAB0E08D939C9382
:1001E00086E886B980E087B9379A87E08093A200D5
:1001F0008091A2008093A30007B1007F036007B93C
:1002000055D2A0E6B0E08D939C93A0E6B0E00D91AE
:100210001C91023252E0150708F004C081E080937F
:10022000A2009DC1A0E6B0E00D911C91033252E006
:10023000150781E008F480E08F93A0E6B0E00D910F
:100240001C91043452E0150781E010F009F080E0C1
:100250009F918923882309F404C082E08093A2003F
:100260007EC1A0E6B0E00D911C91053452E0150767
:1002700081E008F480E08F93A0E6B0E00D911C913E
:10028000063652E0150781E010F009F080E09F91FA
:100290008923882309F404C083E08093A2005FC10E
:1002A000A0E6B0E00D911C91073652E0150781E001
:1002B00008F480E08F93A0E6B0E00D911C9108381F
:1002C00052E0150781E010F009F080E09F9189234A
:1002D000882309F404C084E08093A20040C1A0E612
:1002E000B0E00D911C91093852E0150781E008F447
:1002F00080E08F93A0E6B0E00D911C910A3A52E0A5
:10030000150781E010F009F080E09F918923882390
:1003100009F404C085E08093A20021C1A0E6B0E00A
:100320000D911C910B3A52E0150781E008F480E032
:100330008F93A0E6B0E00D911C910C3C52E01507A4
:1003400081E010F009F080E09F918923882309F46F
:1003500004C086E08093A20002C1A0E6B0E00D9147
:100360001C910D3C52E0150781E008F480E08F936A
:10037000A0E6B0E00D911C910E3E52E0150781E021
:1003800010F009F080E09F918923882309F404C0CC
:1003900087E08093A200E3C0A0E6B0E00D911C913D
:1003A0000F3E52E0150781E008F480E08F93A0E64D
:1003B000B0E00D911C91003153E0150781E010F081
:1003C00009F080E09F918923882309F404C088E024
:1003D0008093A200C4C0A0E6B0E00D911C91013151
:1003E00053E0150781E008F480E08F93A0E6B0E0C9
:1003F0000D911C91023353E0150781E010F009F0D4
:1004000080E09F918923882309F404C089E08093C8
:10041000A200A5C0A0E6B0E00D911C91033353E00B
:10042000150781E008F480E08F93A0E6B0E00D911D
:100430001C91043553E0150781E010F009F080E0CD
:100440009F918923882309F404C08AE08093A20045
:1004500086C0A0E6B0E00D911C91053553E015076C
:1004600081E008F480E08F93A0E6B0E00D911C914C
:10047000063753E0150781E010F009F080E09F9106
:100480008923882309F404C08BE08093A20067C00D
:10049000A0E6B0E00D911C91073753E0150781E00D
:1004A00008F480E08F93A0E6B0E00D911C9108392C
:1004B00053E0150781E010F009F080E09F91892357
:1004C000882309F404C08CE08093A20048C0A0E611
:1004D000B0E00D911C91093953E0150781E008F453
:1004E00080E08F93A0E6B0E00D911C910A3B53E0B1
:1004F000150781E010F009F080E09F91892388239F
:1005000009F404C08DE08093A20029C0A0E6B0E009
:100510000D911C910B3B53E0150781E008F480E03E
:100520008F93A0E6B0E00D911C910C3D53E01507B0
:1005300081E010F009F080E09F918923882309F47D
:1005400004C08EE08093A2000AC00D3D53E0150761
:1005500010F009F001C003C08FE08093A200409129
:10056000A3000091A200041709F424C0A2EAB0E09D
:10057000AD90BB24A4E6B0E0AA0CBB1CAA0DBB1D29
:100580008D919C91A2E6B0E08D939C93A2EAB0E09D
:10059000AD90BB24A2E8B0E0AA0CBB1CAA0DBB1D09
:1005A0008D919C91A4E6B0E08D939C938091A200E4
:1005B0008093A300B19912C0C09879B7726079BFD7
:1005C000A2E6B0E08D919C9162D0C09A79B77D7F10
:1005D00079BFA2E6B0E08D919C9159D0B29912C03A
:1005E000C09879B7726079BFA4E6B0E08D919C9114
:1005F0004ED0C09A79B77D7F79BFA2E6B0E08D91E9
:100600009C9145D0F9CD0F921F922F923F924F921D
:100610005F927F92AF92BF920F931F932F933F935E
:100620004F935F936F937F938F939F93AF93BF93FA
:10063000CF93DF93EF93FF938FB78F9380E186BBC8
:1006400074EB72BF8F918FBFFF91EF91DF91CF91CC
:10065000BF91AF919F918F917F916F915F914F91DA
:100660003F912F911F910F91BF90AF907F905F901E
:100670004F903F902F901F900F9018953197F1F762
:100680000895689462F80895E89462F80895EF93E5
:10069000FF93EE27E82BE92B31F0EAE9F9E03197F7
:1006A000F1F70197D1F7FF91EF910895369A3699B6
:0E06B000FECF369A3699FECF84B195B10895EB
:00000001FF
